S011000052465F5377697463682E73726563AA
S113000012C084C020C01FC01EC01DC01CC01BC0A5
S11300101AC046C018C017C016C015C014C013C0FB
S113002012C011C010C011241FBECFE5D4E0DEBF42
S1130030CDBF20E0A0E6B0E001C01D92A236B20719
S1130040E1F7A2D0A3C0DCCF84309105D1F034F421
S11300508130910561F0029779F008958930910516
S1130060D1F08A309105D1F00897C9F40FC098B344
S113007081E0892788BB089598B382E0892788BBEB
S1130080089598B384E0892788BB089598B388E0DD
S1130090892788BB08958FE088BB089518BA08950E
S11300A01F920F920FB60F9211242F933F934F93E9
S11300B05F936F937F938F939F93AF93BF93CF93EC
S11300C0DF93EF93FF93C3B3D0E0809160009091EE
S11300D06100C817D90739F08C279D27B5DFD09365
S11300E06100C0936000FF91EF91DF91CF91BF91C8
S11300F0AF919F918F917F916F915F914F913F91BC
S11301002F910F900FBE0F901F9018951F920F9272
S11301100FB60F9211242F933F934F935F936F93D6
S11301207F938F939F93AF93BF93EF93FF9380B38A
S113013082958F7090E088DFFF91EF91BF91AF912E
S11301409F918F917F916F915F914F913F912F91EB
S11301500F900FBE0F901F9018958FE087BB14BAB5
S113016011BA83B7846083BF89B7816089BF83E094
S113017085BF8BB780648BBF789483B390E09093F2
S11301806100809360000895E8DFFFCFF894FFCF0B
S9030000FC
